{
    "contractName": "Nostr3",
    "abi": [
        {
            "inputs": [],
            "stateMutability": "nonpayable",
            "type": "constructor"
        },
        {
            "inputs": [],
            "name": "FEE_PERCENTAGE",
            "outputs": [
                {
                    "internalType": "uint256",
                    "name": "",
                    "type": "uint256"
                }
            ],
            "stateMutability": "view",
            "type": "function"
        },
        {
            "inputs": [
                {
                    "internalType": "address",
                    "name": "_newOwner",
                    "type": "address"
                }
            ],
            "name": "changeOwner",
            "outputs": [],
            "stateMutability": "nonpayable",
            "type": "function"
        },
        {
            "inputs": [
                {
                    "internalType": "bytes32",
                    "name": "encryptedHash",
                    "type": "bytes32"
                }
            ],
            "name": "deposit",
            "outputs": [],
            "stateMutability": "payable",
            "type": "function"
        },
        {
            "inputs": [
                {
                    "internalType": "bytes32",
                    "name": "",
                    "type": "bytes32"
                }
            ],
            "name": "encryptedDeposits",
            "outputs": [
                {
                    "internalType": "uint256",
                    "name": "",
                    "type": "uint256"
                }
            ],
            "stateMutability": "view",
            "type": "function"
        },
        {
            "inputs": [],
            "name": "fees",
            "outputs": [
                {
                    "internalType": "uint256",
                    "name": "",
                    "type": "uint256"
                }
            ],
            "stateMutability": "view",
            "type": "function"
        },
        {
            "inputs": [],
            "name": "owner",
            "outputs": [
                {
                    "internalType": "address",
                    "name": "",
                    "type": "address"
                }
            ],
            "stateMutability": "view",
            "type": "function"
        },
        {
            "inputs": [
                {
                    "internalType": "string",
                    "name": "key",
                    "type": "string"
                }
            ],
            "name": "withdraw",
            "outputs": [],
            "stateMutability": "nonpayable",
            "type": "function"
        },
        {
            "inputs": [],
            "name": "withdrawFees",
            "outputs": [],
            "stateMutability": "nonpayable",
            "type": "function"
        }
    ],
    "bytecode": "608060405234801561001057600080fd5b50600180546001600160a01b031916331790556104f1806100326000396000f3fe60806040526004361061007a5760003560e01c80639af1d35a1161004e5780639af1d35a14610117578063a6f9dae11461012d578063b214faa51461014d578063dbed5b821461016057600080fd5b80620b46f81461007f57806331fb67c2146100a8578063476343ee146100ca5780638da5cb5b146100df575b600080fd5b34801561008b57600080fd5b5061009560035481565b6040519081526020015b60405180910390f35b3480156100b457600080fd5b506100c86100c3366004610356565b61018d565b005b3480156100d657600080fd5b506100c8610209565b3480156100eb57600080fd5b506001546100ff906001600160a01b031681565b6040516001600160a01b03909116815260200161009f565b34801561012357600080fd5b5061009560025481565b34801561013957600080fd5b506100c86101483660046103c8565b610292565b6100c861015b3660046103f8565b6102fc565b34801561016c57600080fd5b5061009561017b3660046103f8565b60006020819052908152604090205481565b600082826040516020016101a2929190610411565b60408051601f198184030181528282528051602091820120600081815291829052918120549193509091339183156108fc02918491818181858888f193505050501580156101f4573d6000803e3d6000fd5b50506000908152602081905260408120555050565b6001546001600160a01b031633146102565760405162461bcd60e51b815260206004820152600b60248201526a1393d517d0531313d5d15160aa1b60448201526064015b60405180910390fd5b600280546000918290556040519091339183156108fc0291849190818181858888f1935050505015801561028e573d6000803e3d6000fd5b5050565b6001546001600160a01b031633146102da5760405162461bcd60e51b815260206004820152600b60248201526a1393d517d0531313d5d15160aa1b604482015260640161024d565b600180546001600160a01b0319166001600160a01b0392909216919091179055565b60006127106003543461030f9190610456565b6103199190610473565b905060006103278234610495565b9050816002600082825461033b91906104a8565b90915550506000928352602083905260409092209190915550565b6000806020838503121561036957600080fd5b823567ffffffffffffffff8082111561038157600080fd5b818501915085601f83011261039557600080fd5b8135818111156103a457600080fd5b8660208285010111156103b657600080fd5b60209290920196919550909350505050565b6000602082840312156103da57600080fd5b81356001600160a01b03811681146103f157600080fd5b9392505050565b60006020828403121561040a57600080fd5b5035919050565b60208152816020820152818360408301376000818301604090810191909152601f909201601f19160101919050565b634e487b7160e01b600052601160045260246000fd5b808202811582820484141761046d5761046d610440565b92915050565b60008261049057634e487b7160e01b600052601260045260246000fd5b500490565b8181038181111561046d5761046d610440565b8082018082111561046d5761046d61044056fea264697066735822122022586c0529467b10f7931cda8630d6d5758b666290681a8cf4e6863870dc8e9164736f6c63430008110033",
    "sourcePath": "c:/Users/Utente/Source/repos/nostr3-monorepo/packages/hardhat/contracts/Nostr3.sol",
    "compiler": {
        "name": "solc",
        "version": "0.8.17+commit.8df45f5f"
    },
    "functionHashes": {
        "FEE_PERCENTAGE()": "000b46f8",
        "changeOwner(address)": "a6f9dae1",
        "deposit(bytes32)": "b214faa5",
        "encryptedDeposits(bytes32)": "dbed5b82",
        "fees()": "9af1d35a",
        "owner()": "8da5cb5b",
        "withdraw(string)": "31fb67c2",
        "withdrawFees()": "476343ee"
    },
    "gasEstimates": {
        "creation": {
            "codeDepositCost": "253000",
            "executionCost": "24529",
            "totalCost": "277529"
        },
        "external": {
            "FEE_PERCENTAGE()": "2285",
            "changeOwner(address)": "26698",
            "deposit(bytes32)": "infinite",
            "encryptedDeposits(bytes32)": "2496",
            "fees()": "2284",
            "owner()": "2404",
            "withdraw(string)": "infinite",
            "withdrawFees()": "infinite"
        }
    }
}